:020000040000fa
:080000001015040000000000cf
:020000040000fa
:102800001015040000000000867c04000000000099
:10281000867c040000000000867c040000000000ac
:10282000867c040000000000867c0400000000009c
:10283000867c040000000000867c0400000000008c
:10284000867c040000000000a47a04000000000060
:10285000867c040000000000867c0400000000006c
:10286000867c040000000000867c0400000000005c
:10287000867c040000000000867c0400000000004c
:10288000867c040000000000867c0400000000003c
:10289000867c040000000000867c0400000000002c
:1028a000a843040000000000867c04000000000033
:1028b000546f040000000000867c0400000000004b
:1028c000867c040000000000867c040000000000fc
:1028d000867c040000000000867c040000000000ec
:1028e000867c040000000000867c040000000000dc
:1028f000867c040000000000867c040000000000cc
:10290000867c040000000000867c040000000000bb
:10291000867c040000000000867c040000000000ab
:10292000867c040000000000867c0400000000009b
:10293000867c040000000000867c0400000000008b
:10294000867c040000000000867c0400000000007b
:10295000867c040000000000867c0400000000006b
:10296000867c040000000000c44304000000000056
:10297000867c040000000000867c0400000000004b
:10298000867c040000000000867c0400000000003b
:10299000867c040000000000867c0400000000002b
:1029a000867c040000000000867c0400000000001b
:1029b000867c040000000000867c0400000000000b
:1029c000867c040000000000867c040000000000fb
:1029d000e043040000000000203d0400000000006f
:1029e000867c040000000000867c040000000000db
:1029f000867c040000000000867c040000000000cb
:102a0000867c040000000000867c040000000000ba
:102a1000867c040000000000867c040000000000aa
:020000040000fa
:102a20000f822200007f24000001880000000000c7
:102a30000c000700a058270001002000110007002b
:102a4000000020000000e000020032000000020050
:102a500000000000ca730200000000000040da001d
:102a60000000fe004440a900e03220000000e00029
:102a70000300320000002000a00188004440a800ac
:102a80000000060091018800800078000000eb0043
:102a900015003700e280400032a0b4009101ba0076
:102aa000e280400032a0b4009102ba00e28040000f
:102ab00032a0b4000002eb00472bde00f507b200a5
:102ac000602ce10004003a000059eb008301e900aa
:102ad000fdff3e00040037006128e10001003200e4
:102ae0000082eb00040007001101ba000200e000c0
:102af000e8ff3a00000006003159ba008301e900fe
:102b00000c0032002159ba008301e90008003200ac
:102b10000400e00003003a00e280400032a0b4006c
:102b2000f5ff370011d9ba008301e900faff3a0036
:102b30008100e800e180400032a0b40000000600ff
:102b40000000000000000000000000000000000085
:102b50000000000000000000000000000000000075
:102b60000000000000000000000000000000000065
:102b70000000000000000000020ab900001bb900bc
:102b80000200b800810042008100430000000600fe
:102b90008001780000017800314078000059780009
:102ba0000004e000fcff3a0003007800000006008b
:102bb000881f7800020478003300070008004000f6
:102bc0004f047800000006000000fa00881f78001b
:102bd000000478003fb99700ea8157008000780030
:102be000805d21002f000700800078000000e000d9
:102bf000020035000040eb0000f47800010078008e
:102c00004f0478000080fa00000006008000780081
:102c1000010037000000e8001004e000fdff3a006a
:102c20000100500000000600800178008002eb00e7
:102c3000010037008459780005035100828f52004b
:102c40000900320065c278008502e8000404e00053
:102c5000f8ff3a0083007800068141008058eb00bd
:102c6000828f5000fdff3a00000006008001eb005b
:102c700002003700817178008301e800828f5100e3
:102c8000fcff3a00000006008001eb000200370064
:102c900061f079008301e800828f5100fcff3a0067
:102ca000000006006200fa00889fbe008a9fbe00f6
:102cb0000004be00020578008300780060f92f0050
:102cc0000f004000b000070088979f0099979f0071
:102cd0000000eb00a09f9f009a4578000b80fb004e
:102ce0000000ea00cf04de0050c2b30080cf5500e0
:102cf0000200320009047800010037000904e900ed
:102d00000800e0000b0034001f90970008017800d5
:102d10008a0078008f9197000300010090979f0030
:102d20000000e000930032002f989700000044005c
:102d3000a09f9f000905450050c2b30080cf5500f9
:102d4000040032000b04e000e3ff3a002f989700e4
:102d5000890037000000eb00809f9f00f0979f00e4
:102d6000e0979f00d0979f00c0979f00b0979f006b
:102d7000c09f9f0009003700206c22000080500097
:102d800000004000616b2200e10078004f9897003e
:102d900001007000c09f9f000a05e8001a447800f7
:102da0008800fb00206c22007c0007008000780077
:102db0000000e000f0ff3a00a0c2b300804f5400d2
:102dc0000e003a00bf8897000180e900b08f9f0095
:102dd00010007800b09f9f000000e00005003d005b
:102de0000000ea00b09f9f004f9897000020a000cd
:102df000c09f9f000a05e80010003700b19f9f00a8
:102e000003fd2f00f4ff2700080037003f989700cc
:102e1000840f5000040032006a00b9000000410035
:102e200003004000b09f9f000a05e8001a01fb0064
:102e300003004100e90f5000f4ff3600e0c2b30088
:102e40009a4f1000040032000080eb00909f9f001a
:102e50008a0478001c0037008a04e800a0c2b3008e
:102e6000994f100007003a00bf8897000180e900e1
:102e7000b08f9f0010007800909f9f008a84e80028
:102e8000110037000000eb00909f9f0003fd2f0012
:102e9000f4ff2700080037001f989700840f5000a8
:102ea000040032006a00b900000041000300400045
:102eb000909f9f008904e8001901fb000300410076
:102ec000e90f5000f4ff3600194478008800fb0039
:102ed000a06d2200310007000000e00002003a006f
:102ee00000447800010037008904e800a87f9f00b3
:102ef00080c6b300804f540004003a00994f14007c
:102f00000a003a006640500006003700c0c6b30011
:102f1000804f540005003a00994f140003003a0016
:102f200065404000a07f9f008904e8000905e80093
:102f3000c8fb2f000f04440060f92f000f00400071
:102f40008085e800880178001941780080007800c9
:102f50000b0078001a0007000000e00005003a00ae
:102f6000880078000b007800920107000000e00064
:102f700059ff3d000080eb004f05be004f04be002e
:102f80000080fa00000006000200fa00f1bf9f0076
:102f9000010878000080fa000000060004003700f5
:102fa0000204e00001003a00000005000000e80013
:102fb00010417800814f5100f9ff3a0000000600ef
:102fc000889fbe008a1f7800000478000102780004
:102fd000824478000305780070c6b300804f51002a
:102fe00021003c0000c0e900804f5100de003d00a0
:102ff00072405000804f51004b0132000d003c00e8
:103000006c405000804f51005e013c0000c0e90060
:10301000804f5100d4003d0050c2b300804f51009a
:10302000550132007c404000804f510055013a006c
:10303000cd00370010c6b300804f5100ca003200e7
:1030400004003c0069405000804f51004d013a009f
:103050007200370030c6b300804f510018003200b4
:103060000040e8000900370000c7b300804f51005e
:103070001e01320008003c0000c0e900804f5100f2
:10308000e400320065003c006540500080cf5400f1
:103090003c013a000f00370050c7b300804f510089
:1030a0005e00320063404000804f51005b00320000
:1030b00065405000804f510032013a001a0137003c
:1030c0009180e900010a7800780090009171780001
:1030d00032013700a8609000c0c6b30080cf500016
:1030e0000a003a009400780064805000000a7800da
:1030f0001000be004f89de00cf91de000002be004e
:1031000002037800820378001300370010c7b30071
:1031100080cf500003003200a0c6b30080cf500023
:1031200006003a009400780068805000000a780099
:103130003002be002003be00070037001480e90003
:10314000000a78001000780000027800cfa2de00ac
:103150000503780086037800049cbe000694be0038
:10316000a860900080c6b30080cf50000e003200ef
:1031700020c6b30080cf500005003a000400fb00d9
:10318000cf80de0001017800820178000a0037005c
:1031900040c7b30080cf50000300320066404000bb
:1031a00080cf500006003a0004007800cf80de0097
:1031b0000101780082017800009cbe000294be00ec
:1031c0003800be002801be00e00f5000e08f58001c
:1031d000e00f5900e08f590003003d007800900097
:1031e000d1c2b3000a003700081090000018a300f5
:1031f0000300320078009000b1c2b3000400370031
:103200000008a300530032007800900001c2b30010
:10321000017578000000e8004d003700a8609000bc
:10322000c0c6b30080cf500006003a00940078007a
:1032300064805000000a78001002be006033b800bd
:103240001300370010c7b30080cf500003003200d6
:10325000a0c6b30080cf500006003a00940078006a
:1032600068805000000a78003002be002003be00d3
:10327000070037001480e900000a78001000780089
:103280000002780005002000060020000700200052
:10329000049cbe000694be00a860900080c6b300e7
:1032a00080cf50000e00320020c6b30080cf500007
:1032b00005003a000480fb0001002000020020000d
:1032c000030020000a00370040c7b30080cf500041
:1032d000030032006640400080cf500006003a00f4
:1032e00004007800010020000200200003002000fc
:1032f000009cbe000294be00081090000038a3009d
:10330000140032003800be002801be00e00f50005b
:10331000e08f5800e00f5900e08f59000d00320097
:1033200080c7b30080cf54000300320080c5b300d3
:1033300080cf540007003a007800900001c3b3002a
:10334000017578008000e80009f578000080e80049
:103350007004980078009000000045006004980018
:10336000894078006d003700a8609000c0c4b300a9
:1033700080cf500006003a0094007800688050002a
:10338000000a78005001be004000be000500370072
:103390009400780064805000000a78001000be009d
:1033a0008c080700009cbe000294be00380090000c
:1033b0000000e00003003d0078009000d1c2b3009f
:1033c0000a003700081090000018a3000300320024
:1033d00078009000b1c2b300040037000008a300d9
:1033e000050032007800900001c2b300017578003a
:1033f0000000e8007004980078009000000045008c
:1034000060049800894078000800780033010700c4
:1034100064003700a8609000c0c6b30080cf5000a1
:10342000250032000a003c006440500080cf50006c
:103430002800320000c0e80080cf500014003200a5
:103440006840500080cf500022003a000a00370048
:1034500040c7b30080cf50001e00320066404000dd
:1034600080cf50001b0032006940500080cf5000d8
:1034700018003a00060037001480e900000a7800be
:1034800010007800485c900008487800450037003c
:103490001480e900000a78001002780068089000a3
:1034a000cf80de000101780082017800009abe0022
:1034b0000292be003b0037001480e900000a780049
:1034c0001001780068089000cf80de000089be00ff
:1034d000340037001480e900000a780010007800fa
:1034e000680c9000080878002e0037001180e90071
:1034f0008008780010007800cf80de00010178009d
:1035000082017800009cbe000294be00780090000a
:10351000000045006004980081c7b30008007800ef
:10352000170307001f0037001480e900000a780025
:103530001000780060049800580990000200e00034
:1035400002003d00b1fd0700090037008000eb00dc
:1035500094040700800078000000e00003003200bf
:10356000680090000080500001003700580890006b
:10357000100c98000b00370078009000027578005e
:103580000600370078009000800045000904e00044
:1035900001003a0059c2b300894878000000e800f1
:1035a000700498000000eb004f0578004f04be0047
:1035b000000006000400fa00889fbe008a9fbe003b
:1035c0008c1f7800000478000106780070089000d5
:1035d000f8009000010050008808900001005000a1
:1035e0009808900001005000a808900001005000c9
:1035f000b808900001005000c808900081055000f4
:103600000002220090bf9f0000032300a0bf9f0084
:10361000081090000028a30018003a000b00e000fa
:10362000160034008b04780009057800e28f5400fe
:10363000020036002a002000020037000900e000e6
:103640000b00340058009000c80190000a01780077
:10365000ee80570003000100500498000000e000d5
:10366000960032006808900000004500600c980049
:103670008a8454004240a900ebff3c00780190008e
:103680000200e0000b00340058009000c8019000d8
:103690008c00780003000100500498000000e00056
:1036a0008600320068089000f80090000100400099
:1036b000600c9800880c90000900e00015003400b0
:1036c00009057800e28f5400020036002a0020002d
:1036d000020037000900e0000b00340058009000a1
:1036e000c80190000a017800ec8057000300010037
:1036f000500498000000e00070003200680890005c
:1037000000004500600c98008a8454004240a900e3
:10371000ebff3c00180990000200e0000b003400b1
:10372000e800900058009000c801900003000100dc
:10373000500498000000e00060003200680890002b
:103740009808900001004000600c9800a80c9000c0
:103750000900e0001500340009057800e28f5400ec
:10376000020036002a002000020037000900e000b5
:103770000b00340058009000c80190000a01780046
:10378000ec80570003000100500498000000e000a6
:103790004a0032006808900000004500600c980064
:1037a0008a8454004240a900ebff3c003809900095
:1037b0000200e0000d003400e800900018089000be
:1037c0008080400058009000c80190000300010074
:1037d000500498000000e0003800320068089000b3
:1037e000b808900001004000600c9800c80c9000e0
:1037f0000900e0001500340009057800e28f54004c
:10380000020036002a002000020037000900e00014
:103810000b00340058009000c80190000a017800a5
:10382000ec80570003000100500498000000e00005
:10383000220032006808900000004500600c9800eb
:103840008a8454004240a900ebff3c00081090001d
:103850000028a3001b0032000b00e0001900340018
:103860008b04780009057800e28f540002003600ce
:103870002a002000020037000900e0000b0034009d
:1038800058009000c80190000a017800ee805700af
:1038900003000100500498000000e000070032001f
:1038a0006808900000004500600c98008a8454006d
:1038b0004240a90003003400eaff37000080eb001b
:1038c000010037000000eb004f0678004f05be00f6
:1038d0004f04be000080fa00000006008f04b00014
:1038e000889fbe008a9fbe008c9fbe008e1f7800fe
:1038f000f0b79f0081f79f005001be004000be005e
:10390000f0979f00819f9f00929f9f00a39f9f0021
:1039100010c6b3000ff19700804f5100160032001f
:1039200010c4b300804f510013003200ffb1970064
:10393000530890000000e00003003d0060002000fc
:10394000d00998000c0037000000e0000a003a009f
:1039500070c6b3000ff29700804f52000300320090
:1039600070c4b300804f520003003a0010002000e2
:10397000ffb29700d00a9800ffb09700c0fa2f005e
:103980000f0040009103070080017800e20f500013
:1039900015003a0030002000ffb097009008980012
:1039a00010c6b3000ff19700804f51000a0032009b
:1039b00064404000804f5100070032000040e800a2
:1039c000804f510004003200e15d22000040e80019
:1039d000804f510001003a00215e2200ffb19700a4
:1039e00063009000160037000000e000180034006b
:1039f000300020007fb29700100a980010c6b30074
:103a00008ff2970080cf52000a00320064404000dd
:103a100080cf5200070032000040e80080cf520003
:103a200004003200615e22000040e80080cf5200b6
:103a300001003a00a15e22007fb197006200900071
:103a4000315878003158780011487800c6013700a5
:103a500014c6b3008ff2970084cf520003003200e7
:103a600010c4b30080cf520013003a007fb097001b
:103a7000600190008200780000c3b3008058780095
:103a8000ffb29700e102980080c7b3008ff2970061
:103a900084cf52000100320080c5b3008048780016
:103aa0000280e800ffb09700e000980071009000ed
:103ab0000080e800f00098000300e00005003a00f4
:103ac000e3979f0064fb2f000f014200030778007b
:103ad000a0013700e55e2200e5b79f0010c6b300e5
:103ae0008ff0970080cf50000500320010c4b30063
:103af00080cf5000a7003a00f25f2200e2b79f009b
:103b0000ffb19700530890001e0220000000e00063
:103b1000010035000007e8000e02e800d4b79f005e
:103b20006022b8006033b8007f9097008f989700ac
:103b30001f999700af999700c5060700ffb097003f
:103b40003102be002103be000000e00004003d0081
:103b50000400be000601be0003f0a2000200370010
:103b60000400be000601be00f0979f00819f9f00e9
:103b7000929f9f00a39f9f006f9197006401510047
:103b8000e2979f00c3fa2f008f8141006a804100b5
:103b90000048eb006b824100c4b79f003100370042
:103ba000c201200003002000e5fa2f000f80420030
:103bb000320307007f9497008f9c97001f9d97000a
:103bc000af9d97000800be000a01be00a5060700d1
:103bd0000006be005fb1970067015100d2b79f0099
:103be0004240a9000a003400ca0607000002be00d5
:103bf0000203be000800be000a01be00c80607009e
:103c0000f0979f00819f9f00929f9f00a39f9f001e
:103c1000cfb1970067804100710020000500370098
:103c20006f6066004c6add004466de000c067200c0
:103c3000c4eede00e00f5600e08f5e0005003400a9
:103c40008100e900e18f4000f5ff3a0001003700f4
:103c50000060eb008100e900fdff3b0067004000d1
:103c6000c0b79f00dfb297000500e00009003400f4
:103c70006022b8006033b8007f9097008f9897005b
:103c80001f999700af999700a70607000000e00072
:103c9000c3ff3c0060fb2f008f0040004fb1970036
:103ca000010051000000e9008e0f500001003d00ae
:103cb000000778000e00e00003003d0073fb2f00ba
:103cc0000f8141002c003700800f570005003d0098
:103cd0000e80400010409000f3c0b300e74f50004a
:103ce00001003c008041eb00c4fa2f000f024200ab
:103cf0000e0042006a0040008e007800010037008c
:103d00000000e9008100e90010417800834f510074
:103d1000fbff32000107e800efcf510001003a003d
:103d20000248e8000100e0000300350075fb2f00a9
:103d30000f814200060037000e07e8006f909700e1
:103d400064004000e0979f0061fb2f000f8140005e
:103d50008e0041008e017800030037001100fb0047
:103d60006fb29700e44878008301e9008100e90020
:103d70000300e000f9ff3d00ffb2970055089000f6
:103d80000000e000f3003d000e00e900d00a9800ba
:103d9000f00037007f9497008f9c97001f9d97003d
:103da000af9d97006022b8006033b8000800be00e5
:103db0000a01be00260607000000e00005003d00e5
:103dc0000bf0a200f8979f00899f9f009a9f9f0089
:103dd000ab9f9f006f909700725927000280b90037
:103de000026a28001300200047050700e400500085
:103df000e1979f0015003b00e3801000c0ff2f00fb
:103e0000008460000800ea00e0979f007f90970020
:103e10008f9897001f999700af999700499a2000b3
:103e2000070037000808a300030032003902be0073
:103e30002903be00410607000884d100e88444003d
:103e40000800e000f7ff3c001b0037000100e00025
:103e50001d003400c0ff2f0000806000e0979f002d
:103e6000000478006000b8000200200003ff230077
:103e7000499a2000070037000808a3000300320019
:103e80003902be002903be002c0607000884d100b9
:103e9000e88444000800e000f7ff3c000002be0098
:103ea0000203be007f9097008f9897001f9997009c
:103eb000af99970096060700f0979f00819f9f009b
:103ec000929f9f00a39f9f00ffb097005109900011
:103ed00060c6b3008ff1970080cf5100040032001c
:103ee0006100200060c4b30080cf510002003a009e
:103ef0006f929700ea00420001074100f30f57005c
:103f0000010034003e01200000c3b300e0779f00b1
:103f100075fb2f008f824200b5b79f00330037003a
:103f20000800be000a01be00ce0507000006be0064
:103f3000680757004240a9000e003400f50507004d
:103f40000002be000203be000800be000a01be005f
:103f5000f30507006022b80046782d007719240089
:103f6000f6050700f0979f00819f9f00929f9f009a
:103f7000a39f9f003fb09700680440008900200085
:103f80000d003700a4002000050020000c01be0039
:103f9000e0fd2f000f004000b30207007fa897004c
:103fa0008fb097001fb19700afb1970004c3b30063
:103fb000046441000006be00e00f5600e08f5e0082
:103fc000060034008904e900e18f4400edff3a0067
:103fd0000200370000c3b300006478008904e900e0
:103fe000fcff3b0068044400b8b79f000e00e000ef
:103ff0000b0034007f9497008f9c97001f9d9700c3
:10400000af9d97006022b8006033b8000800be0082
:104010000a01be00c40507000000e000c0ff3c002c
:10402000c5fa2f008f8242006a804200bfb097001d
:10403000008050008001e9006f919700e700410087
:104040006b81420000c3b300010037000201e800a9
:10405000924f1000fdff320074fb2f000f00420052
:1040600080804000828050000080410002025000a9
:10407000e1979f00ffb29700d509900060c6b3009a
:104080008ff2970080cf52000300320060c4b3006b
:1040900080cf520002003a008100e8000a00370099
:1040a00050c6b3008ff0970080cf5000050032005b
:1040b0008000eb0050c4b3008ff2970080cf520015
:1040c00001003a0011002000018741008e0f5200cc
:1040d00001003d00040778000e00e0001d003500df
:1040e000840f570005003d00e2407f0095c3b300f8
:1040f00040c3b30080cf500001003c0005c3b300b3
:104100000e0041008000e9008e01780001003700b8
:104110008100e9008301e90011427800854f5200d7
:10412000fbff32000307e80090c3b30080cf5200ca
:1041300001003a008448e8000300e00005003d006b
:104140000201e9000e07e8006f9097000000e80008
:10415000e0979f006f9297008e0178008ff0970094
:104160007fb097005d0207004f0778004f06be0042
:104170004f05be004f04be008f04b10000000600d2
:104180002f03b000889fbe008a9fbe008c9fbe0098
:104190008e1f78000007780010622200c0b79f00d1
:1041a00080c5b30080cf50000800320002612200b9
:1041b000c2b79f007740400080cf500003003a0014
:1041c00083002000b3b79f000a00370080c7b30008
:1041d00080cf500005003200a4002000b4b79f003b
:1041e00080c5b30080cf500002003a0005012000d6
:1041f000b5b79f003e04be002e05be0040c6b3000a
:1042000080cf5000030032006540400080cf500056
:104210000b003a00e00f5400e08f5c00e00f5d00ff
:10422000e08f5d0006003d006000b8006011b8003e
:1042300008045000898458000a0559008b855900ec
:10424000bfb39700e88f530003003200f08f530094
:1042500045003a0002003700360020000100370018
:1042600046002000e00f5400e08f5c00e00f5d008e
:10427000e08f5d0005003a005e089000810120009b
:10428000a1b79f000000e000080032003fb1970096
:104290000200e90008006000cfb197006340780099
:1042a00090df9f0074012000a4b79f008602780071
:1042b0008502e900050033008b05d1000a85d30093
:1042c0008984d3000884d300f9ff3700089fbe001b
:1042d0000a97be00afb397000700e90021fc2f004a
:1042e0008f804000008240003fb197008202e900c9
:1042f00012003700afb397008703e900a7b79f000c
:1043000000806200cfb09700615278003e00be008e
:104310002e01be00860378008703e9000500330004
:104320008381d1000281d3008180d3000080d3003b
:10433000f9ff3700009fbe000297be003e00be009e
:104340002e01be00e00f5000e08f5800e00f590032
:10435000e08f5900d6003400afb397000700e000ab
:10436000e4ff3c00d2003700ae60900080c6b3008e
:1043700080cf50000b00320006003c000104e0003a
:10438000080032006640500080cf500073003a00b1
:1043900004003700c0c6b30080cf50006f003a0061
:1043a00031003700080178000800e00005003a00fd
:1043b0005e08900081012000a1b79f000000e0008e
:1043c00009003200bfb19700110009000381d80035
:1043d0008000fd004fb297006440780090df9f009e
:1043e00075012000a5b79f00bfb397001100090019
:1043f0000781d80080017800afb097000100e90084
:1044000022fc2f000f014100000241000c00370088
:10441000bfb29700110009008501d80000017800a3
:10442000afb397008703e900a7b79f000590b900d5
:1044300000805100cfb0970061527800820178006f
:104440000300e000030034002fb197000200e000f9
:10445000efff3c0003007800cf80de000101780010
:10446000820178003a0037000806be00e00f5400d1
:10447000e08f5c0005003a005e0890008301200098
:10448000a3b79f000000e000090032003fb2970090
:104490006121b9000c00be0098030700cfb297005d
:1044a0006540780090df9f0077012000a7b79f004c
:1044b0003fb297006121b9000c00be007f030700e6
:1044c0000006be00afb297000500e90027fc2f00f0
:1044d0008f8343008083430097b79f00110037000c
:1044e0003fb197006114b9000801be000c00be0086
:1044f000850307000005be00afb197008301e90006
:10450000a3b79f000801be009bf9070000005600fa
:104510001fb29700cfb297006552780094b79f0002
:104520000a06be00e00f5600e08f5e000300340074
:10453000afb397000700e000e9ff3c004feade0060
:10454000cfa2de000c00be000401780084017800d8
:10455000009fbe000297be0055003700e00f5400d8
:10456000e08f5c00e00f5d00e08f5d0005003a0029
:104570005e08900081012000a1b79f000000e000cc
:104580000d0032003fb1970002027800cfa2de009a
:1045900005037800860378000800be000a01be000b
:1045a000b60507004fb297006440780090df9f0087
:1045b00075012000a5b79f003fb197000202780067
:1045c000cfa2de0005037800860378000800be0055
:1045d0000a01be00a2050700009fbe000297be00b0
:1045e000afb197000300e90024fc2f000f02420046
:1045f0000006420020003700bfb297000504780093
:10460000cfc4de00090578008a0578000802be00e4
:104610000a03be005fa89700efa897007fa9970044
:104620008fb1970099050700d0b79f00e1b79f00b1
:10463000f2b79f0083bf9f00afb397008703e900e5
:10464000a7b79f000802be000a03be0015060700b8
:104650005faa970000005200cfb29700655678001d
:104660005fb09700efb097007fb197008fb99700c8
:10467000009fbe000297be003e00be002e01be009d
:10468000d0af9f00e1af9f00f2af9f0083b79f00c4
:10469000e00f5000e08f5800e00f5900e08f590004
:1046a00003003400afb097000100e000d2ff3c00ef
:1046b0003fb19700e80f510013003a000e10900030
:1046c0000038a30010003200afb19700f78f5100ff
:1046d00006003e0024fc2f000f024200830042002f
:1046e00000c3b300914f100007003200afb2970033
:1046f0008502e900a5b79f0000c3b30027fc2f0087
:104700008f83430080f37a00afb197007881110066
:10471000120f98006e00900024fc2f000f02420040
:104720008300420058f907001e0990005e089000bf
:10473000800f510006003d0002005000000f98005d
:104740000e1090000040a100001798000f003700e5
:104750000000e0000d003d000e10900074006000ad
:10476000f00f500009003a007e089000fe00900013
:10477000010050008e08900001005000020050001f
:104780004240a90001003400000f98004f07780054
:104790004f06be004f05be004f04be002f03b10000
:1047a000000006008001eb00040037008301e800f0
:1047b00090cf1000040032000000e800828f51000a
:1047c000faff3a000000eb0000000600889fbe00e0
:1047d000800478006684400000ff27001800600015
:1047e0004401de00f07f2000800f51000e003a00ef
:1047f000800ceb00180478006f0064001c003a0085
:10480000210090000000e00019003a001100900023
:104810000000e00016003a00100020001100e00047
:1048200014003200120037000200e00005003c00d6
:1048300001007800dd010700000178000000e000c1
:1048400008003c00f00028001800600001fe230072
:10485000010c700020c02f00800c41000080eb0094
:1048600004003700800ceb000000eb000100370073
:10487000200020004f04be0000000600889fbe00fc
:104880008a1f78008c9fbe00000478000206be00dc
:10489000e6044000190178000200d0004505de0062
:1048a0008a007800f07f2000800f55000c003a004d
:1048b0006f00610067003a00280090000000e000ef
:1048c00064003a00180090000000e00061003a0027
:1048d000100020001800e0005f0032005d0037008b
:1048e0000a00e00007003a0008007800af01070066
:1048f000800078000000e000020034000a00780028
:10490000550037006108b9000c0140008d81480056
:10491000e07f2000800f5100e08f59000d0034002f
:104920001900e00004003d006000b8000200200013
:1049300003ff2f00030037006000b80002002000d2
:1049400003ff2700009cbe000294be001000200060
:1049500041003700e00f5100e08f5900050034009e
:10496000f000280019006000c410dd00810c700008
:1049700036003700190078000100280001036000ac
:104980006f0060000040a000800c780061015100c1
:10499000e0815900c0fc2f00f1ff2f00800f510073
:1049a000818f590006003d00860c78000000eb0066
:1049b0002004980010049800000c780026003700ae
:1049c000020078000881e800e40044000500370098
:1049d000120c78001109780099087800800ceb001f
:1049e00070004000f00f4000f9ff34008002ea0040
:1049f000150032008881e80070821200980078006b
:104a00008508de00130078000400dd00008c7000d3
:104a100064014400930078008508de0012007800ed
:104a20000400dd0080897000920078008508de00b7
:104a3000190078000400dd0000897000190078007a
:104a40000500de00800c7800990c73000080eb00fc
:104a500001003700200020004f06be004f057800ff
:104a60004f04be00000006000400fa00889fbe004c
:104a70008a9fbe008c1f78000006780092bf9f00be
:104a8000a3bf9f000404be000401be001fb897002e
:104a9000afb897001c0207000005be000001be0071
:104aa0000800be0034f807001fb99700afb997009f
:104ab00000005100818059002006980031069800be
:104ac0000a8ebe000c0078004f0678004f05be002d
:104ad0004f04be000080fa00000006000e00fa003d
:104ae000889fbe008a9fbe008c9fbe000004780095
:104af0000145780002067800830478008406780077
:104b00000300e00002003c00190020004c6f22006e
:104b100060c6b300804f55000e00320060c4b30081
:104b2000804f55000b00320070c6b300804f550017
:104b30000300320070c4b300804f55009c003a005f
:104b4000e48f46008000350058089000808f5600a2
:104b50007d003d008d05e80060c6b300804f550024
:104b60001000320060c4b300804f55000d003200c9
:104b7000081090000038a30004003a005808900084
:104b8000808f540001003d00590c98005808900097
:104b90000b005000500c980002003b000000eb009e
:104ba000500c98000b00e00027003c001809900012
:104bb0006800900001c3b300017079008201e80031
:104bc000130c9800580890000000e00003003c001f
:104bd000081090000038a300050032006800900023
:104be000e1c2b30001f079000280e800100c9800e7
:104bf000d80890000b00ea00808f500001003d00b3
:104c00008105ea000b00ea00200c980001804500b5
:104c1000500c9800890f500001003d00800478007e
:104c2000390c98006800900098089000010040003e
:104c3000090178008c00780013f8070058089000ec
:104c4000090050001a003700980890006800900092
:104c50008b8f540018003d000100400009017800ce
:104c60008c00780008f807001808900000814400c4
:104c7000120c980009805500200c980058089000ec
:104c80000000e00003003c00081090000038a30082
:104c900006003200e8009000e0c2b30080707900a6
:104ca000380890000000e800300c98005808900088
:104cb000400c9800a6003700010040000b0178006e
:104cc0008c007800f0f7070018089000008145007c
:104cd000120c98008b845400580890000000e000eb
:104ce00003003c00081090000038a30005003200cb
:104cf00068009000e1c2b300017079000200e80092
:104d0000100c980058089000890f500001003d00d9
:104d1000800478006800900098089000010040002e
:104d20008b00460009017800d7f7070018089000ab
:104d300000804400100c98005808900009005000b2
:104d4000200c98008200370070c6b300804f5500d9
:104d50000300320070c4b300804f550014003a00c5
:104d600058089000808f540004003d000810900007
:104d70000038a30001003a00590c98005808900030
:104d80000000e900500c980002003b000000eb001e
:104d9000500c980070c6b300804f550002003a00d6
:104da0005ac6b3000b0037005ac4b30009003700dd
:104db00010c6b300804f550002003a000ac7b30086
:104dc0000400370010c4b300804f550001003a00c2
:104dd0000ac5b30018099000680090003c70790083
:104de0008201e800130c98000c027800580890002b
:104df0000000e00003003c00081090000038a30011
:104e000017003200e8009000e0c2b30080f07900a3
:104e10008280e800110c9800580890000000e00023
:104e20000f0034008904e900890f500001003d00a3
:104e3000800478006800900000804000090178003c
:104e40008400780090f70700180890000080440064
:104e5000100c98005808900009005000200c980091
:104e60006800900098089000010040000086e8006b
:104e70000a587800800078000d00e000040035003a
:104e8000b0c2b300804878008c047800040037007a
:104e9000d0c2b300804878008c0478008d06ea0008
:104ea0008005eb000a003700a20020008d0078008a
:104eb00070805700890007000fb897009fb89700cf
:104ec0007a81550001f17f008b05e80080067800ab
:104ed0000d00e000f4ff3c00e18f550009003c00ac
:104ee00050c6b300804f55000300320050c4b300d9
:104ef000804f550003003a0000c3b300005e780005
:104f00008c0478000b00e000040032000b00e90084
:104f1000fa805700008040000600370000c3b3004d
:104f2000805c7800050037008b05e90002c3b30000
:104f3000a05c41000b00e000fbff3c00680090001b
:104f4000980890000100400000805400300c980048
:104f50000810900074006000f00f50000e003a003e
:104f6000780090009808900001004000a808900088
:104f700001004000b808900001004000c8089000ff
:104f80008100400078089000808f500002003d00b2
:104f900001005000000c98004f06be004f05be00f7
:104fa0004f04be000080fa000000060000017800f7
:104fb000e601400013007800010028008103600032
:104fc0006f0060008009780012003a002200900013
:104fd0000000e0000f003a00120090000000e00026
:104fe0000c003a00160020001200e00038003200e9
:104ff00008003700e4004100910978000280e800d1
:1050000090087800120878000009eb007003530044
:1050100001003700160020001300e000f5ff320009
:10502000e40241000282e8001100370080004000e5
:10503000150078004f00de00808970009500780030
:1050400081804000140078004f00de00808a7000ec
:105050009400780081804000120078004f00de004c
:10506000008a700012007800000940000603e90081
:1050700013007800ef0f5000ecff36008282e8004a
:10508000640241000e0037009200d1001500780044
:105090004f00dd00008970009500d10014007800f9
:1050a0004f00dd00808a70009400d100130078006a
:1050b0004f00dd00008a70009309d1000603e8006c
:1050c00013007800ff0f5000efff3e00ef09600073
:1050d0009389730006007800000006000202780041
:1050e000809fbe00110009008200d80000017800f6
:1050f0004f00be0002a2b900848050001100980049
:105100000208780000000600889fbe008a9fbe004b
:10511000010578000100e0000400350008003c00b3
:105120000000e000200032000500370060001000a1
:10513000e080180002003b0001f02c001a0037004c
:105140000004be006011b8006b0920000982cf0086
:10515000020039000882cf000441b00069425200c9
:105160000e00320008003b00828171006101640082
:105170008904d1000884d3008b05e8000442e800cc
:10518000f9ff3a00050037000804440089844c0008
:105190008b05e9000442e900fbff3a009f0007008d
:1051a0000af0a70001f0a0004f05be004f04be00aa
:1051b00000000600889fbe008a9fbe008c1f7800fa
:1051c000bc000700c300330003866c006450e1009c
:1051d0002e0032006420e100330032006150e10013
:1051e0002f0032006120e10031003200858555003a
:1051f000eb07b0000900200008042000050037007c
:105200000804440089844c000a003100060343006e
:1052100087834b000001530081815b00f8ff33005e
:105220000203be000800a0000804440089844c006a
:10523000f6ff3900c639dd0083017300010032003a
:10524000130020008904d1000884d3000998a3002a
:10525000050032000800a7000300a0008904d10067
:105260000884d3008b05e8008904d1000884d300aa
:105270000001eb000281d2006800070001f0a100ec
:105280000cf0a70001f0a0009b0037006420e100b3
:105290009d0032000801be000200be00f7ff37008b
:1052a0006120e100980032006000b800f3ff370091
:1052b0000000200001f82700f0ff37006022b8004e
:1052c000060220000000d0008180d2000482d200bb
:1052d0008582d2000000a0000202520083825a00a0
:1052e000030031000202420083824a000000a10054
:1052f0000603e900f3ff3a0000000600efff070095
:105300000400be0000000600839f68000100e0006a
:1053100002003d0060001000e08018000300e00083
:1053200002003d0060011100e0811900e3ff070069
:105330004f00e00002003b0060001000e080180019
:1053400000000600889fbe008a9fbe008c1f780068
:10535000580007005f00330003866c006450e100d2
:10536000240032006420e100270032006150e10097
:10537000220032006120e100210032008b854200d2
:10538000eb07b1000134b800003ab800080442004d
:1053900089844a00013ab8000030b8008880400093
:1053a00009014a00040033000000400081804800e9
:1053b000020149008b05e900c909dd008301700085
:1053c0000100320013002000c814de004814dd0084
:1053d0004709de001200b200c808de000884700031
:1053e0000e00070001f0a1000cf0a70001f0a000e2
:1053f000410037006120e100430032000801be0097
:105400000200be00f7ff37006150e100fcff3a00e8
:105410003d003700f4ff2f003e00370081002000e0
:10542000618055000b003d000b00200061fe2f0045
:105430000100e1001d0034008281710061016400ff
:105440008904d1000884d3000000e800faff3a0084
:105450007100200061006400030070000200600021
:105460000900320061044400e0844c000988a50072
:10547000050032008b05e8006808e10002003a00f0
:105480008904d1000884d300f20f20000258e10003
:1054900005003d00c75ddd00f907b2008980750099
:1054a00008007800000006000bf827008b00780049
:1054b000000005000004be00310007000003be002c
:1054c0000405be000200be002d000700844f7500d9
:1054d000000006000200be006450e1000500360036
:1054e0006420e100020036000968a30001003a00d0
:1054f0000800be000160a0004f0678004f05be0006
:105500004f04be0000000600f0ff2f00f1ff27004f
:10551000f9ff3700889fbe008a9fbe00841f780075
:10552000e4ff07004f00780011003300f0ff2f0068
:10553000838f6c0006003b00040565000a00a7008d
:105540000800370009f0a60010002000080037000e
:10555000820f5400838f5c0003003900100020008c
:1055600001003e000000200009f0a7000000ea0052
:105570004f05be004f04be000000e0000000060022
:10558000c70ade00f107b200f50fb20008003200d2
:10559000e1cf4200020032000170a00024000500ab
:1055a000810f70000100320004080500440005006e
:1055b000810f700002003a00140005008502e90026
:1055c0000000400081c04800fcff3b000170a000cb
:1055d0002400050081037800e9ff07000001be00f8
:1055e0006000b8000478a30013003a006220e100d4
:1055f00015003e000d0039008301d1000281d30067
:105600008180d3008301d1000281d3008180d30047
:105610008301d1000281d3008180d3000538b0001e
:10562000c42add00f300b2008381720007f0a700f6
:1056300003f0a00000000600f3ff2700f2ff2f0098
:105640006110b900fbff370003ff2700f7ff3700a9
:105650008f1fd100410207008f87e9000000e000a2
:10566000000006001400fa00889fbe008a9fbe005a
:105670008c9fbe000004be000205be00680047000b
:105680000a90be000890be005d0207000070a700ef
:105690000bf0a100304320009e0290008082520057
:1056a000b0fe2f000028e10011003d00b0fc2f00eb
:1056b0000028e100150034001e0990008e089000bb
:1056c0007e0090000501b0000201d1008180d3006e
:1056d0000080d3008502e800fbff3a000b00e000e9
:1056e00082023b0060001000e08018007f0237005b
:1056f000f0ff2f00f1ff27000b00e0007b023b00d2
:105700000100280000002000780237006000b80087
:10571000760237004f89de00820178007802370078
:1057200007f0a200ad023700809feb000b020700dc
:105730008f87e9000000e000000006002800fa0062
:10574000889fbe008a9fbe008c9fbe0003866b00b0
:10575000520207000028a30064003a000128a300b9
:1057600067003a000008a30062003a000108a300a5
:1057700065003a001e009000be08900081064000bf
:10578000ed3fb100f4805700ee019000111ab8000f
:105790008e099000311bb8009e099000311cb800a2
:1057a000511db800f485570046000700fe01900027
:1057b0003a0007008b85e8003e0007008e09900044
:1057c00040000700ee019000340007008b85e800e0
:1057d000380007008e099000400007009e099000e5
:1057e0001b18b800890440000a854800fe0190009b
:1057f000340007008b85e80038000700ee019000b8
:10580000300007008e0990001b18b8008904400082
:105810000a8548000a98a30008003a0004024200e2
:1058200085824a0006034b0087834b0008044c0026
:1058300089844c000a054d008d06e90084827200bf
:10584000850273004c3add008502720001003200cf
:1058500015002000443ade001400b2004538de0096
:10586000cb45dd000b007000c540de00cb4ddd00f8
:105870008b8070004549de00cb55dd000b017100c7
:10588000c551de000d037800d102070003f0a1002e
:105890000cf0a70003f0a000140237001b18b8009a
:1058a0008502400006834800e0834b0060044c0002
:1058b000070037001b18b800060340008783480024
:1058c000faff37001b18b80087034000088448001f
:1058d000e0844c0060054d00000006001b18b80075
:1058e0000804400089844800faff37000108a3003b
:1058f000fb013a005800be005801be00e3ff37002c
:105900000008a300f6013a0009047800f9ff370007
:105910002800fa00889fbe008a9fbe008c9fbe00b0
:1059200003866b00dd0107006400e10044003200e3
:105930006408e1004a0032006100e10046003200e4
:105940006108e10049003200ec0647006000b80041
:105950003d02be003d03be00f48657006011b80052
:105960003d04be003d05be007d0320000b00370056
:105970000000a0008d06e90013003200040242007e
:1059800085824a0006034b0087834b0000004000dd
:1059900081804800020149008381490008025200c9
:1059a00089825a000a035b008b835b00f0ff3b0097
:1059b0000802420089824a000a034b008b834b0095
:1059c0008d06e900edff3a00848272008682720043
:1059d000f707b20087827200010032001500200034
:1059e0001e0490003e0b900006035400e63fb000fa
:1059f0000368a300070032000000a7000500a00014
:105a00008301d1000281d3008180d3000080d300c4
:105a10000603e8008301d1000281d3008180d30016
:105a20000080d3000002eb000482d200680207006d
:105a300003f0a1000cf0a70003f0a000ab013700b9
:105a4000640247006408e100a50132003400be0092
:105a50003401be00f6ff37006108e100a00132000a
:105a60006011b8006000b800f1ff370003ff2700a5
:105a700002002000fbff3700881f78000004780038
:105a80005001be004000be00040040008580480078
:105a90000601490087814900009cbe000294be00b7
:105aa0000400e1000588e1000690e1000798e100ac
:105ab00002003100680044001008e8004f0478003c
:105ac00000000600f4874700889fbe008a9fbe0042
:105ad0008c9fbe008e1f78000205be000004be0031
:105ae000d4b79f00e5b79f00f6b79f0087bf9f0020
:105af0000000eb00c0b79f00b0b79f00a0b79f00a9
:105b000090b79f0080b79f000d042000bfb09700a2
:105b10004fb09700000140000000e0000f003d0082
:105b20004f08de0000007100c0b79f009e00070014
:105b300001003d0012002000a100070001003d000f
:105b400012002000a6000700b1000700b600070001
:105b50000f004000c8ff0700220037004f08de009a
:105b600000067100ccb79f008f00070001003d00c8
:105b7000120020009200070001003d0012002000ea
:105b800097000700a20007000fb297009fb297008e
:105b90002fb39700bfb39700a90007000000520081
:105ba00081805a0002015b0083815b0080b79f0007
:105bb00091b79f00a2b79f00b3b79f000007eb000b
:105bc0009f0007000020e10001a8e10002b0e10011
:105bd00003b8e100010031001e0020000e00560055
:105be000c0b79f004fb297000400e00007003500e7
:105bf00010002000010020006011b80008047000af
:105c0000898470000a0571008b8571008d06e9009a
:105c1000beff3a000400e00003003d0082000700e0
:105c20000f00400094ff07004fa897000000e0001d
:105c300004003a000fb497009fb497002fb5970067
:105c4000bfb59700940007004f0778004f06be00cd
:105c50004f05be004f04be004f01b100000006001a
:105c6000881f780018002000881f780095ff070023
:105c70008f87e9004f04780000000600801feb00ca
:105c800090ff07008f87e90000000600889fbe0094
:105c90008a9fbe008c1f78006e00070007003d0041
:105ca00073000700e00f5b00e08f5b0007003d0022
:105cb000320007000006eb00040037003400070044
:105cc00002003d002a0007001c00200072000700af
:105cd000e3ff07000203be000002be000c00e0006c
:105ce00001003200220007000400be000601be00d1
:105cf0004f0678004f05be004f04be0000000600ae
:105d0000889fbe008a9fbe008c1f7800510007004c
:105d100005003d0056000700e00f5b00e08f5b00d0
:105d200006003d00040037001900070003003d0095
:105d30006000b8006011b8001000070056000700ae
:105d4000ceff07000203be000002be000c00e00010
:105d500001003200060007000400be000601be007c
:105d60004f0678004f05be004f04be00000006003d
:105d70006000b8006011b800000037000402500055
:105d800085825800060359008783590000000600e9
:105d90000006eb00e00f5200e08f5a00e00f5b00be
:105da000e08f5b00000006000180400090b79f007c
:105db0000001eb008fb097000100e000000006003a
:105dc0000200700090b79f000180400080b79f00e4
:105dd0000001eb00ffa897000100e00000000600b2
:105de0000200700080b79f00018040006faa9700fa
:105df000cf20de0001007000f0af9f0004024200df
:105e0000250007004f18de000002720000000600a7
:105e1000e4af9f000804440089844c000a054d004b
:105e20008b854d00000006003fb29700cfb297006f
:105e30005fb39700efb3970000fe2f00000006004d
:105e40003fb09700cfb097005fb19700efb19700d8
:105e5000000006000205be000004be00e00f500076
:105e6000e08f5800e00f5900e08f59000000060055
:105e70006000b8006011b800080450008984580020
:105e80000a0559008b8559001c002000e00f5200c4
:105e9000e08f5a00000006000800be000a01be00a4
:105ea00000000600889fbe008a9fbe008c1f7800fd
:105eb0000205be000004be000006eb00e00f50002b
:105ec000e08f5800e00f5900e08f590007003d00b7
:105ed0006000b8006011b8000804500089845800c0
:105ee0000a0559008b8559001c002000e00f520064
:105ef000e08f5a00e00f5b00e08f5b0002003d0086
:105f00000f0007000c00a2000800be000a01be003e
:105f10005b0107000203be000002be000c00e000af
:105f200001003200060007000400be000601be00aa
:105f30004f0678004f05be004f04be00000006006b
:105f40006000b8006011b80004025000858258005b
:105f5000060359008783590000000600889fbe0091
:105f60008a9fbe008c9fbe000404be000605be00d2
:105f7000809fbe00829fbe00630107000406780078
:105f80000800be000a01be005f0107008406780019
:105f90004f03be004f02be008d4f76007fb09700ca
:105fa00013003300f0ff2f008b8f6b0006003b00c7
:105fb0000d0666000c00a7000a00370007f0a600d7
:105fc000100020000a003700880f5200898f5a0005
:105fd0008a0f5b008b8f5b000300390010002000ec
:105fe00001003e000000200007f0a7000000ea00ca
:105ff0004f06be004f05be004f04be000000060065
:10600000800078005002be005003be004439de001c
:10601000f700b200f37f20000301610009003200a5
:106020000218e10016003a00850172008301730036
:10603000838173000008200015003a004000200012
:1060400013003700850172008301730083817300a0
:1060500005003a0004a8be0006a8be0010002000fb
:106060000b0037000201e9000402420085824a0069
:1060700006034b0087834b000748a300f9ff32005b
:106080000740a00004a8be0006a8be002000200013
:106090008000980092009800000006006804470005
:1060a0000294be000094be00fc0447008694be002b
:1060b0008494be0009007800d1ff07000800780032
:1060c000cfff070099007800814f70000b003b0064
:1060d0000800be001e0107004f00b100030037009a
:1060e000f3ff2700f2ff2f006110b9004f06be003a
:1060f0004f05be004f04be000080fa0000000600fd
:10610000889fbe00830478000300e0002c00350067
:1061100003003c000082700004027100260032007f
:1061200036432000c50020008383cf000a003900d9
:106130000541b1008283cf00070039000541b1005d
:106140008183cf00040039000541b1008083cf0076
:10615000010039000541b10085c353006022b80039
:10616000120032000a003b0084827200610260006b
:106170008301d1000281d3008180d3000080d3004d
:106180000603e8008743e800f7ff3a0007003700fe
:1061900000004000818048000201490083814900dd
:1061a0000603e9008743e900f9ff3a008800070089
:1061b00009f0a70003f0a0004f04be000000060095
:1061c00060001000e080180060011900e0811900f3
:1061d000d3ff3b00033e2c00f7ff37002800fa00f6
:1061e000889fbe008a9fbe008c9fbe000706780075
:1061f000878669000c003b00030478008704780060
:1062000008f0a10009f0a100840f5000858f58000c
:10621000860f5900890f5c00030033000cf0a200c8
:1062200001003a000cf0a1009cff07006400e100af
:106230005f003200780147006408e100610032002d
:106240006c014700748557003200be001201be0089
:106250003a04be001a05be001e039000be0a90005c
:106260008503530006003d000004fd008104fd008d
:106270000205fd008305fd008703ea0005037800a1
:106280000df8a3000400320060041400e0841c0038
:1062900060051d00e0851d006022b8007d03200020
:1062a0000d38e1008006eb000b0039004433dd00bf
:1062b000f300b2008301730039003700848272005a
:1062c0000d027800e10664008b85d1000a85d300b9
:1062d0008984d3000884d3008703e900f7ff3b00db
:1062e00008004000898048000a0149008b8149006c
:1062f00004003b0060001000e080180060011900fd
:10630000e08119000358a300090032008d82720059
:1063100084827200610260008301d1000281d30097
:106320008180d3000080d3000603e8001b00370003
:106330000348a30017003a000600e00017003400ed
:106340000603e9000d00a30000004800818048001a
:1063500002014900838149000348a3000f003a006d
:106360000600e000090034000603e90000004000d8
:1063700081804800020149008381490001003a0000
:106380000003eb000348a300f5ff32006022b800d1
:106390000200370084827200618266000c000700f0
:1063a00003f0a1000cf0a70003f0a0004fff37009e
:1063b000640147006408e10002003a000df8a30000
:1063c00047ff3a003200be001201be0047ff37000f
:1063d0001800200057002000080453000d003d0065
:1063e0000600200097fc2f000740e1001e0034004b
:1063f00084827200610260008301d1000281d300b7
:106400008180d3000080d3000804e800f8ff3a0040
:106410004700200061046000050474000404640067
:106420000d00320061004000e0804800600149003a
:10643000e081490003b8a500070032000603e80028
:106440006538e10004003a008301d1000281d300e5
:106450008180d3000080d300f87f20000830e10065
:1064600003003500080378006000b8006011b80030
:106470004433dd00f300b200830173000000060026
:10648000889fbe008a9fbe008c9fbe000404b80097
:106490000506b8008904460060854e000606b8006f
:1064a0000a054600e0854e000706b8008b05460049
:1064b000040eb800890446000a854e00e0854d00b0
:1064c000050eb8000a0546008b854e00060eb80082
:1064d0008b0546000416b8000a0546008b854e0061
:1064e0000516b8008b054600041eb8008b05460053
:1064f0000800be000a01be004f06be004f05be00e8
:106500004f04be000000060005ff27000582610061
:10651000070032000428e1000100320024000500d9
:106520000600070001003a004400050004080500c9
:1065300002000700f9ff3a00140005006f826100b5
:106540008102700085027100850272000000060061
:10655000e48240001078a30007003200640240008b
:106560001178a3003400be001401be000400320004
:106570000330a700000006003500be001501be0074
:086580000330a000000006003a
:020000040000fa
:020000040001f9
:0457f4000acf0000d8
:020000040000fa
:020000040001f9
:0457f800d483000056
:020000040000fa
:020000040001f9
:0457fc00fc1f00008e
:020000040000fa
:10000800867c0000867c0000867c0000867c0000e0
:10001800867c0000867c0000867c0000867c0000d0
:10002800867c0000867c0000867c0000a47a0000a4
:10003800867c0000867c0000867c0000867c0000b0
:10004800867c0000867c0000867c0000867c0000a0
:10005800867c0000867c0000867c0000867c000090
:10006800867c0000a8430000867c0000546f0000d6
:10007800867c0000867c0000867c0000867c000070
:10008800867c0000867c0000867c0000867c000060
:10009800867c0000867c0000867c0000867c000050
:1000a800867c0000867c0000867c0000867c000040
:1000b800867c0000867c0000867c0000867c000030
:1000c800867c0000867c0000867c0000867c000020
:1000d800867c0000867c0000867c0000867c000010
:1000e800867c0000867c0000c4430000867c0000fb
:1000f800867c0000867c0000867c0000867c0000f0
:10010800867c0000867c0000867c0000867c0000df
:10011800867c0000867c0000867c0000867c0000cf
:10012800867c0000867c0000867c0000867c0000bf
:10013800867c0000867c0000867c0000867c0000af
:10014800867c0000867c0000867c0000867c00009f
:10015800867c0000867c0000867c0000867c00008f
:10016800867c0000867c0000867c0000867c00007f
:10017800867c0000e0430000203d0000867c0000f3
:10018800867c0000867c0000867c0000867c00005f
:10019800867c0000867c0000867c0000867c00004f
:1001a800867c0000867c0000867c0000867c00003f
:1001b800867c0000867c0000867c0000867c00002f
:1001c800867c0000867c0000867c0000867c00001f
:1001d800867c0000867c0000867c0000867c00000f
:1001e800867c0000867c0000867c0000867c0000ff
:0801f800867c0000867c0000fb
:020000040000fa
:10020800867c0000867c0000867c0000867c0000de
:10021800867c0000867c0000867c0000867c0000ce
:10022800867c0000867c0000867c0000a47a0000a2
:10023800867c0000867c0000867c0000867c0000ae
:10024800867c0000867c0000867c0000867c00009e
:10025800867c0000867c0000867c0000867c00008e
:10026800867c0000a8430000867c0000546f0000d4
:10027800867c0000867c0000867c0000867c00006e
:10028800867c0000867c0000867c0000867c00005e
:10029800867c0000867c0000867c0000867c00004e
:1002a800867c0000867c0000867c0000867c00003e
:1002b800867c0000867c0000867c0000867c00002e
:1002c800867c0000867c0000867c0000867c00001e
:1002d800867c0000867c0000867c0000867c00000e
:1002e800867c0000867c0000c4430000867c0000f9
:1002f800867c0000867c0000867c0000867c0000ee
:10030800867c0000867c0000867c0000867c0000dd
:10031800867c0000867c0000867c0000867c0000cd
:10032800867c0000867c0000867c0000867c0000bd
:10033800867c0000867c0000867c0000867c0000ad
:10034800867c0000867c0000867c0000867c00009d
:10035800867c0000867c0000867c0000867c00008d
:10036800867c0000867c0000867c0000867c00007d
:10037800867c0000e0430000203d0000867c0000f1
:10038800867c0000867c0000867c0000867c00005d
:10039800867c0000867c0000867c0000867c00004d
:1003a800867c0000867c0000867c0000867c00003d
:1003b800867c0000867c0000867c0000867c00002d
:1003c800867c0000867c0000867c0000867c00001d
:1003d800867c0000867c0000867c0000867c00000d
:1003e800867c0000867c0000867c0000867c0000fd
:0803f800867c0000867c0000f9
:020000040000fa
:106588004c540000560000004c5400004600000027
:106598004c540000440000004c410000003f000043
:1065a8002530000032580000004100004c53000024
:1065b80000500000726f000078000000414c00009d
:1065c8005320000026200000507200006f78000061
:1065d800004300006f6c00006f7200000043000071
:1065e8006f6c00006f720000202600002050000031
:1065f800726f00007800000053630000616e0000b5
:10660800005000006f72000074200000332000006a
:1066180044650000766900006365000000540000ce
:10662800534c0000323500003630000000540000a2
:10663800534c000032350000363100000054000091
:10664800534c000032350000363200000054000080
:10665800534c00003235000036330000005400006f
:10666800534c00003235000036380000005400005a
:10667800534c000032350000363900000054000049
:10668800534c000032350000373100000054000040
:10669800534c000032350000383000000054000030
:1066a800534c00003235000038310000005400001f
:1066b800534c00003236000037310000005400000f
:1066c800534c0000323700003731000000540000fe
:1066d80043530000333400003034000000540000fd
:1066e80043530000333400003134000000540000ec
:1066f80043530000333400003731000000540000d9
:1067080043530000333600003731000000540000c6
:1067180043530000333700003731000000540000b5
:10672800534c0000343500003331000000540000a1
:106738004d4400003237000037310000004c0000a3
:10674800434400000042000061740000740000002f
:106758004c43000044200000262000004261000055
:1067680074740000000000005ab400000ab400006d
:10677800deb300005eb4000006000000ff09000060
:1067880001a10000011900000129000040150000c6
:1067980000260000ff00000075080000954000007a
:1067a800810000001901000029400000910000004c
:1067b800c00000002c03000054000000410000004d
:1067c8004f00000053000000200000004c000000b3
:1067d8006900000067000000680000007400000005
:1067e8002000000053000000650000006e0000005b
:1067f800730000006f00000072000000200000001d
:10680800310000002e00000030000000500300009e
:1068180054000000650000007800000061000000de
:106828007300000020000000410000006400000028
:1068380076000000610000006e00000063000000a8
:106848006500000064000000200000004f00000008
:1068580070000000740000006f0000006500000078
:106868006c00000065000000630000007400000078
:10687800720000006f0000006e0000006900000058
:106888006300000020000000530000006f000000bb
:106898006c00000075000000740000006900000032
:1068a8006f0000006e000000730000000403000089
:1068b800090400000902000029000000010100008d
:1068c80000c00000320900000400000000020000bf
:1068d8000300000000000000092100001101000071
:1068e80000010000221d00000007000005810000d3
:1068f800034000000001000007050000010300003c
:106908004000000001000000120100000002000029
:106918000000000000080000d804000002fb00008e
:106928000200000001020000000100004c690000a4
:106938006e650000204f00006e650000004c0000ee
:10694800696e000065200000547700006f000000a9
:1069580044690000737000006c6100007920000039
:106968004f6e00000043000075720000736f000056
:10697800722000004f4e00000043000075720000b6
:10698800736f000072200000424c0000494e000066
:106998004b000000357800003820000048650000f2
:1069a8006967000068740000003500007831000055
:1069b8003620000048650000696700006874000020
:1069c800005400006869000073200000697300002b
:1069d80020610000206c00006f6e0000672000003e
:1069e80073740000726900006e670000206f000079
:1069f8006e2000006c6900006e650000206f0000ca
:106a08006e650000002500003032000064000000c0
:106a1800544100004f530000204300006f6e0000f7
:106a2800747200006f6c00006c650000722000003a
:106a3800202000002020000020200000202000004e
:106a4800202000002020000020200000202000003e
:106a5800202000002020000020200000202000002e
:106a6800465700002076000020250000642e000014
:106a7800256400002e25000064200000202000006e
:106a880020200000202000002000000043460000d5
:106a9800473100003a25000030340000582000003b
:106aa80043460000473200003a2500003034000019
:106ab8005800000043460000473300003a25000014
:106ac80030340000580000002573000050420000d8
:106ad80031200000446e0000202000000025000046
:106ae8007350000042310000205500007020000063
:106af8002000000025730000202000005042000004
:106b080032200000446e00000025000073200000c1
:106b180020500000423200002055000070000000a4
:106b2800436100006c69000070650000722000007d
:106b38006f66000066000000253800002e30000057
:106b480032660000206d00006d000000202000006b
:106b5800202000002020000020200000202000002d
:106b680020200000000000002536000064200000fe
:106b78002030000078250000303400005800000064
:106b88003078000025300000345800002030000024
:106b980078250000303400005820000025640000eb
:106ba80000000000323700003731000020300000bc
:106bb8003a25000035640000205000003a25000006
:106bc800356400000041000044430000202000001c
:0c6bd800313a0000253500006400000088
:020000040000fa
:106be4009ec0a900f00f2000702488005024880063
:106bf40020002000302588008000eb00412588001b
:106c04008644a900f00920008024880060248800bc
:106c14008804a800008022004800de00c024880008
:106c24009424a800b1248800612588009424a90034
:106c3400010178004210dd000180220001004000c3
:106c44000008eb00301078000201e800e80f510062
:106c5400f8ff3a00d00020005025880002003700d9
:106c640080002000502488008ac4bf00684160006e
:106c7400fbff3a00e06622002240980020662200d2
:106c840022409800b040900032409800c0409000ec
:106c94004240980094a4a9008000eb00e365220020
:106ca4000001eb0082b07900406522008230780058
:106cb4008180e800e48f5000f8ff3a0080802200d1
:106cc40080097800906622000248780052338900d7
:106cd400000006000001eb008000eb0040072000ec
:106ce4003e790200000000008284a9000001200017
:106cf40000248800000006008284a800000120000f
:106d0400502488000001eb008000eb0050072000b5
:106d14003e79040000000000aac4bf000018a300cc
:106d24000d003200d23281009240900000c8b300be
:106d340080cf500007003a00f0328100904090006c
:106d440040c8b30080cf500002003a0068404000c1
:106d540010419800aa24a9000008200050248800ab
:106d640000000600d0328100104278002266220022
:106d7400b24090008180fb00424090004800dd005a
:106d8400010070008480fb00808f500003003600f7
:106d940032409000c24090000042780022662200f7
:106da400b24090008180fb00424090004800dd002a
:106db400010070008480fb0001005000b24090008c
:106dc400304198004800de00c240900040419800e5
:106dd4008002eb000f003700216622001181fb00c6
:106de400114090004800dd00020070008381fb0028
:106df400826322006358790011417800e048610001
:106e0400914870004800de001141900090409800c5
:106e14008502e8008541780084cf5200eeff3900f6
:106e240020662200b04090008180fb00404090002a
:106e34004800dd00010070000f00320081c0b30083
:106e4400c03281000148780081632200c032810091
:106e540011009800d03281001040900081ccb30022
:106e64000068a3000100320081c8b300c032810071
:106e7400114098000000060081c0b300c0328100b8
:106e84000148780001642200c0328100110098009a
:106e940041c8b300c032810011409800226622002c
:106ea400d24090008180fb00624090004800dd00e9
:106eb4000100700006003200d24090008180fb0087
:106ec400624090004800dd000100700000000100f5
:106ed40021662200214090000070a100a04098008b
:106ee400000006008040eb00206522000148780085
:106ef400e265220012007800114098001200780028
:106f04000020a20011409800226622002240900036
:106f14000004e00010003d00d24090008180fb009e
:106f2400624090004800dd0001007000060032005d
:106f3400d24090008180fb00624090004800dd0058
:106f44000100700000000100216622002140900031
:106f54000070a100a04098000000060020652200f7
:106f640021c0b30090cf100001003a007dff37002c
:106f7400dcff0700603281000000e0000a003a00f4
:106f840081c0b300c032810001487800016422004e
:106f9400c032810011009800c1c8b300c032810022
:106fa40011409800000006000000eb0060328900e8
:106fb40000000600e2662200b24090008180fb00df
:106fc400424090004800dd00010070008400200071
:106fd400e70f50000f003e00b24090008180fb009c
:106fe400424090004800dd0001027000316522003b
:106ff40010c0b3001104e000050032003165220026
:1070040010c0b300914f100002003a0020c0b3003a
:1070140080487800e3652200130178001240900054
:10702400c820de0001407000104198001300780071
:1070340004487800e2662200b24090008180fb00a0
:10704400424090004800dd00010070000403780015
:1070540004005000b2409000304198004800de0027
:10706400c240900040419800806322008032890031
:10707400224090006022b8000008a30010003200f3
:107084002100370082328100e16622009181fb00f9
:10709400114090004800dd00030070003059780072
:1070a4008232890011417800e04861009148700003
:1070b4004800de0011419000904098000402e8006e
:1070c400860f5200efff3a00000006008232810072
:1070d400e16622009181fb00114090004800dd0030
:1070e4000300700030597800823289001141780021
:1070f400e0486100914870004800de0011419000b2
:10710400904098008502e800868f5200efff3a0015
:107114000000060094a4a900e0662200204090002c
:1071240001c8b3000141600023003a002066220038
:1071340020409000014060001200320021c0b300e2
:107144002065220001487800e165220011007800e2
:10715400024878001100780082ccb30012409800f5
:1071640081c0b300c03281000148780081632200ed
:10717400c032810011009800c03281001240980092
:107184000000060081c0b300c032810001487800cd
:1071940001642200c032810011009800c1c8b3000c
:1071a400c032810011409800e8c05000f0328100e4
:1071b4001140980000000600206622002040900044
:1071c4000004e0004c0035000464220000c8b30051
:1071d4001440600037003200644090000080fb00df
:1071e400744190004811dd0000017100e366220043
:1071f400b34090008180fb00434090004800dd00d4
:1072040001007000800f51000a003100e44090003a
:107214008180fb00744090004800dd000100700094
:10722400b3409000b04198004800de00c340900095
:10723400c04198005fff070011c0b3002065220021
:107244000148780083c0b300c0328100034878004d
:1072540002642200c03281001200980001c8b30009
:10726400c0328100114098000000eb0060328900b8
:10727400d032810003487800d03281001200980097
:10728400e4c04000d032810011409800100020007a
:1072940060328900e2652200920078008063220057
:1072a400900098009200780080ccb3009040980041
:1072b4000000060021c0b3002065220001487800c8
:1072c400e1652200110078000048eb00110078000d
:1072d40082ccb3001240980081c0b300c032810058
:1072e4000148780081632200c032810011009800b7
:1072f400c03281001240980000000600889fbe0042
:10730400e165220011007800104090004600de0084
:10731400e10460001124a20050338100e80f500002
:1073240009003a0000642200204090000080fb0025
:10733400b0248800000120009604e20001003a0015
:1073440040002000503389002065220011c0b300a2
:1073540090cf100014003a00e8652200180078006d
:10736400816322001100980012ff0700306522009b
:1073740021c0b30090cf100004003a0098007800b8
:1073840040c8b300904098000800370081ccb30097
:107394000904e0000100320081c8b300f03281002a
:1073a4001140980001003700cefe07004f04be00d4
:1073b400000006000164220000c8b300914f1000d1
:1073c40053003a00e266220000ccb300204198004a
:1073d40031409000e24f500012003200e34f500061
:1073e40029003200e14f500046003a0080482b004b
:1073f4009240780060c96000124970004800de00c5
:1074040092409000104198003240900020c1b30097
:1074140030419800424090000040eb004041980009
:107424000000060000642200204090000080fb0061
:1074340000004000e13b2b0060807800e166220000
:1074440011417800e0486100914870004800de0076
:1074540011419000904098001181fb001140900070
:107464004800dd000200700020409000b040980009
:107474001181fb00114090004800dd000200700003
:107484003040900019003700016422002140900030
:10749400e24f500017003e00214090000080fb00a6
:1074a40000004000813b2b0060807800e1662200f0
:1074b40011417800e0486100914870004800de0006
:1074c40011419000904098001181fb001140900000
:1074d4004800dd00020070001080fb003141900084
:1074e400b04098004800de0041419000c040980040
:1074f400000006008040eb00e06622002140980076
:10750400000006008040eb00e06622002140980065
:1075140000000600e0662200a04090000170a00078
:10752400214098000000eb0060258800800078006e
:10753400028022004208dd00020040000008eb0047
:10754400301078008100e800e88f5000f8ff3a001e
:107554009424a800c06522000048eb009424a900ec
:1075640080802200f0328900d2328900c232890040
:107574009166220000642200204090008048780038
:10758400000120001104e000060032001200200077
:1075940091662200100020003e79020000000000e5
:1075a400000220005033890000000600816322009d
:1075b4000040eb008048780090409800006422006e
:1075c400104078007f406000e14f50000f0032000f
:1075d40003003900e24f50002a003a00100037003f
:1075e400e0662200a04090000170a00021409800b5
:1075f400816322001104a00060338100e10f500078
:1076040020003a001114a0001e003700e166220099
:10761400214090000070a000a0409800190037009d
:10762400e0662200a04090000170a0002140980074
:1076340001642200414090000004e0000500350090
:10764400414090006f00600000004000416522004e
:107654000500370000642200404090006f00600085
:1076640000004000e1652200608078001040900036
:107674000028a3000300320011c0b300806322007d
:1076840001487800e2662200224090000004e000f5
:107694000c003d00806322009240780060c96000c5
:1076a400124970004800de0092409000104198009a
:1076b400224090000000a0002041980020c0b300a8
:1076c40030419800000006000200fa000264220023
:1076d40022409000e14f50000e003a0092407800a2
:1076e4007fc060000b003a00e0662200a0409000da
:1076f4000170a0002140980012409000e34f500018
:1077040002003a0010002000010037000000eb00e6
:107714006033890002642200224090000004e000eb
:107724003a003a00924078007fc06000e24f500077
:1077340036003a00424090006f406000330032004f
:10774400e0662200a04090000170a0002140980053
:10775400424090000004e0000500350042409000e3
:107764006f00600000004000416522000500370002
:1077740000642200404090006f0060000000400060
:10778400e1652200e0807800f1bf9f0000642200e0
:107794001040900041c8b300e34f5000190032007c
:1077a40002642200424090006f006000000040002c
:1077b400a14a2000010040001014a10042409000a2
:1077c4000004e00008003d008040eb007fb8970013
:1077d400114098006ff897000024a200e0ff9f007a
:1077e40001c4b3000700370081c8b3007fb8970015
:1077f40011409800eff897000124a200e1ff9f00d8
:1078040081ccb3007fb89700114098000080fa0043
:10781400000006000164220002c6b30011406100aa
:1078240045003a00114090000080fb000100200058
:10783400eb0f5000e08f58003f003e000060010055
:1078440016003700160037003b00370014003700dd
:1078540039003700060037000c00370031003700cc
:107864000c0037000a0037000e00370022003700f2
:10787400e0662200a04090000170a0002140980022
:10788400800020005033890000000600c9fe370044
:1078940020ff3700906622000700370043ff3700bf
:1078a40089ff370000642200404090000080fb0004
:1078b400c165220001004000e16622001141780008
:1078c400e0486100914870004800de0011419000da
:1078d40090409800214090000000a000a040980033
:1078e40010c0b300b0409800214090000070a00088
:1078f400a040980000000600e166220021409000ac
:107904000070a000a0409800026422004240900051
:107914000080fb00c16522002241900002f0780043
:10792400000006000001eb008000eb0020002000b6
:107934003e7902000000000000000600f1328100e0
:10794400114090000004e00002003d000040eb0004
:10795400904098008040eb00306522000148780098
:107964002065220001487800e06622003041900042
:1079740031409800404190004140980021409800d7
:10798400a4ff07000001eb008000eb0030002000a2
:107994003e79020000000000defd3700e1642200b1
:1079a400114078000024a1008081fb001c003a00f3
:1079b4001180fb00c00fb2000180220001014000d1
:1079c400d2328900c2328900806522001024a200cc
:1079d40012409000c043b20041c3b300814f500035
:1079e4000e003a009200900080632200808f5000c5
:1079f40009003a0000642200100198000301780095
:107a04008163220000642200617079000201e800b1
:107a1400e80f5100faff3a00c8ff37004ffd370066
:107a2400e0642200104078000024a100e84f5000d8
:107a340001003a0031fe0700000006003600f8009d
:107a4400809fbe00829fbe00849fbe00869fbe00b2
:107a5400881f78003400f80000c0b300a00188003b
:107a640050338100e10f500009003a0094c4bf0074
:107a74000068a30006003a00f00f2000502488009c
:107a84008c04a8008c84a8002000200050338900b6
:107a940080c4bf000048a3000600320082c4bf00b7
:107aa4000048a300030032000001200000248800e5
:107ab40088fc070088c4bf000018a3005d003a00da
:107ac4008ac4bf000008a300150032008cc4bf00a4
:107ad4000008a3001200320041fc07009ec0a80069
:107ae40040002000503389000280220000642200fc
:107af4001040890080c0b300004978001240900013
:107b0400634060001041980012409000c1c8b30067
:107b1400014070001041980010002000502488009b
:107b24008ac4bf000048a300060032008cc4bf0012
:107b34000048a300030032006ffc0700000120008e
:107b4400502488008ac4bf000028a3000a00320021
:107b54008cc4bf000028a3000700320012002000dc
:107b64008000eb00300720003e7902000000000096
:107b740040002000502488008a44e20005003d00b3
:107b84008cc4bf0001c8b300014060000100320092
:107b940061fc07008ac4bf000018a3000a00320079
:107ba4008cc4bf000018a30007003200120020009c
:107bb4008000eb00f0ff27003e7902000000000087
:107bc400f00f20007024880050338100e30f500030
:107bd400180036008cc4bf000038a3001500320022
:107be40048c0b3008ac4bf000038a30011003200ab
:107bf40090248000e1642200804878008000200006
:107c0400502488001180fb00000fb20002003a00eb
:107c140062ff0700050037000001eb00e164220069
:107c2400200720003e790200000000000844e9001b
:107c3400ecff3a008ec0a9003400f9004f0478002c
:107c44004f03be004f02be004f01be004f00be00f6
:107c54003600f900004006008081fb0003824100e9
:107c64000180fb00000042004300dd00028022008e
:107c740002014000124090000070a10010419800e1
:107c84000104e00003003a0040652200023278005b
:107c94000300370083804100e065220082307800d1
:107ca400124090000060a10010419800e4004100df
:107cb400114090000060a000904098000000060071
:107cc400889fbe00004478000080fb000000400054
:107cd400a24a2000017079008184fb000938a300c6
:107ce400030032008040eb0008407800daff070010
:107cf4000928a3000300320011c0b3000840780033
:107d0400d5ff07004f04be000000060001417800c3
:107d14000004e0000d003a0081c0b300c0328100cd
:107d24000148780001642200c032810011009800eb
:107d3400c1c8b300c032810011409800e8c05000af
:107d4400f032810011409800000006008080fb00a2
:107d5400818040000280fb0080804000c308dd0079
:107d640002802200028140001240900043c8b30008
:107d74000340700010419800408022008080400041
:107d840011409000034070009040980000000600ed
:107d940080427800014378000104e00004003200ce
:107da4000080fb0000004000e16522000300370072
:107db4000080fb00000040004165220060827800e2
:107dc4000400e00002003a0004007800000006000d
:107dd40012029800034a7800144090000044b20054
:107de400104298001440900081c8b3000140700014
:107df400104298000604e000040032000580fb00f5
:107e040000004000e1652200030037000580fb000c
:107e14000000400041652200010040001024a2003f
:107e240004007800000006008040780094c4bf007d
:107e34000058a300170032000181fb000201410039
:107e4400e065220000014100920178001300be00a9
:107e5400040420000500200000006200010020004e
:107e64008089be001200780010186a0010906a0021
:107e74001224a20092007800114090000044b20045
